{
  "address": "0xA235e5B852a6CF88c9f5abDAAf7dc2948D49652A",
  "abi": [
    {
      "inputs": [],
      "stateMutability": "nonpayable",
      "type": "constructor"
    },
    {
      "inputs": [],
      "name": "ApprovalCallerNotOwnerNorApproved",
      "type": "error"
    },
    {
      "inputs": [],
      "name": "ApprovalQueryForNonexistentToken",
      "type": "error"
    },
    {
      "inputs": [],
      "name": "BalanceQueryForZeroAddress",
      "type": "error"
    },
    {
      "inputs": [],
      "name": "MintERC2309QuantityExceedsLimit",
      "type": "error"
    },
    {
      "inputs": [],
      "name": "MintToZeroAddress",
      "type": "error"
    },
    {
      "inputs": [],
      "name": "MintZeroQuantity",
      "type": "error"
    },
    {
      "inputs": [],
      "name": "OwnerQueryForNonexistentToken",
      "type": "error"
    },
    {
      "inputs": [],
      "name": "OwnershipNotInitializedForExtraData",
      "type": "error"
    },
    {
      "inputs": [],
      "name": "TransferCallerNotOwnerNorApproved",
      "type": "error"
    },
    {
      "inputs": [],
      "name": "TransferFromIncorrectOwner",
      "type": "error"
    },
    {
      "inputs": [],
      "name": "TransferToNonERC721ReceiverImplementer",
      "type": "error"
    },
    {
      "inputs": [],
      "name": "TransferToZeroAddress",
      "type": "error"
    },
    {
      "inputs": [],
      "name": "URIQueryForNonexistentToken",
      "type": "error"
    },
    {
      "anonymous": false,
      "inputs": [
        {
          "indexed": true,
          "internalType": "address",
          "name": "owner",
          "type": "address"
        },
        {
          "indexed": true,
          "internalType": "address",
          "name": "approved",
          "type": "address"
        },
        {
          "indexed": true,
          "internalType": "uint256",
          "name": "tokenId",
          "type": "uint256"
        }
      ],
      "name": "Approval",
      "type": "event"
    },
    {
      "anonymous": false,
      "inputs": [
        {
          "indexed": true,
          "internalType": "address",
          "name": "owner",
          "type": "address"
        },
        {
          "indexed": true,
          "internalType": "address",
          "name": "operator",
          "type": "address"
        },
        {
          "indexed": false,
          "internalType": "bool",
          "name": "approved",
          "type": "bool"
        }
      ],
      "name": "ApprovalForAll",
      "type": "event"
    },
    {
      "anonymous": false,
      "inputs": [
        {
          "indexed": true,
          "internalType": "uint256",
          "name": "fromTokenId",
          "type": "uint256"
        },
        {
          "indexed": false,
          "internalType": "uint256",
          "name": "toTokenId",
          "type": "uint256"
        },
        {
          "indexed": true,
          "internalType": "address",
          "name": "from",
          "type": "address"
        },
        {
          "indexed": true,
          "internalType": "address",
          "name": "to",
          "type": "address"
        }
      ],
      "name": "ConsecutiveTransfer",
      "type": "event"
    },
    {
      "anonymous": false,
      "inputs": [
        {
          "indexed": true,
          "internalType": "address",
          "name": "previousOwner",
          "type": "address"
        },
        {
          "indexed": true,
          "internalType": "address",
          "name": "newOwner",
          "type": "address"
        }
      ],
      "name": "OwnershipTransferred",
      "type": "event"
    },
    {
      "anonymous": false,
      "inputs": [
        {
          "indexed": true,
          "internalType": "address",
          "name": "from",
          "type": "address"
        },
        {
          "indexed": true,
          "internalType": "address",
          "name": "to",
          "type": "address"
        },
        {
          "indexed": true,
          "internalType": "uint256",
          "name": "tokenId",
          "type": "uint256"
        }
      ],
      "name": "Transfer",
      "type": "event"
    },
    {
      "inputs": [
        {
          "internalType": "address",
          "name": "",
          "type": "address"
        }
      ],
      "name": "amountNFTsPerWallet",
      "outputs": [
        {
          "internalType": "uint256",
          "name": "",
          "type": "uint256"
        }
      ],
      "stateMutability": "view",
      "type": "function"
    },
    {
      "inputs": [
        {
          "internalType": "address",
          "name": "to",
          "type": "address"
        },
        {
          "internalType": "uint256",
          "name": "tokenId",
          "type": "uint256"
        }
      ],
      "name": "approve",
      "outputs": [],
      "stateMutability": "payable",
      "type": "function"
    },
    {
      "inputs": [
        {
          "internalType": "address",
          "name": "owner",
          "type": "address"
        }
      ],
      "name": "balanceOf",
      "outputs": [
        {
          "internalType": "uint256",
          "name": "",
          "type": "uint256"
        }
      ],
      "stateMutability": "view",
      "type": "function"
    },
    {
      "inputs": [],
      "name": "baseURI",
      "outputs": [
        {
          "internalType": "string",
          "name": "",
          "type": "string"
        }
      ],
      "stateMutability": "view",
      "type": "function"
    },
    {
      "inputs": [
        {
          "internalType": "uint256",
          "name": "tokenId",
          "type": "uint256"
        }
      ],
      "name": "getApproved",
      "outputs": [
        {
          "internalType": "address",
          "name": "",
          "type": "address"
        }
      ],
      "stateMutability": "view",
      "type": "function"
    },
    {
      "inputs": [
        {
          "internalType": "address",
          "name": "owner",
          "type": "address"
        },
        {
          "internalType": "address",
          "name": "operator",
          "type": "address"
        }
      ],
      "name": "isApprovedForAll",
      "outputs": [
        {
          "internalType": "bool",
          "name": "",
          "type": "bool"
        }
      ],
      "stateMutability": "view",
      "type": "function"
    },
    {
      "inputs": [
        {
          "internalType": "uint256",
          "name": "_quantity",
          "type": "uint256"
        }
      ],
      "name": "mint",
      "outputs": [],
      "stateMutability": "payable",
      "type": "function"
    },
    {
      "inputs": [],
      "name": "name",
      "outputs": [
        {
          "internalType": "string",
          "name": "",
          "type": "string"
        }
      ],
      "stateMutability": "view",
      "type": "function"
    },
    {
      "inputs": [],
      "name": "owner",
      "outputs": [
        {
          "internalType": "address",
          "name": "",
          "type": "address"
        }
      ],
      "stateMutability": "view",
      "type": "function"
    },
    {
      "inputs": [
        {
          "internalType": "uint256",
          "name": "tokenId",
          "type": "uint256"
        }
      ],
      "name": "ownerOf",
      "outputs": [
        {
          "internalType": "address",
          "name": "",
          "type": "address"
        }
      ],
      "stateMutability": "view",
      "type": "function"
    },
    {
      "inputs": [],
      "name": "renounceOwnership",
      "outputs": [],
      "stateMutability": "nonpayable",
      "type": "function"
    },
    {
      "inputs": [
        {
          "internalType": "address",
          "name": "from",
          "type": "address"
        },
        {
          "internalType": "address",
          "name": "to",
          "type": "address"
        },
        {
          "internalType": "uint256",
          "name": "tokenId",
          "type": "uint256"
        }
      ],
      "name": "safeTransferFrom",
      "outputs": [],
      "stateMutability": "payable",
      "type": "function"
    },
    {
      "inputs": [
        {
          "internalType": "address",
          "name": "from",
          "type": "address"
        },
        {
          "internalType": "address",
          "name": "to",
          "type": "address"
        },
        {
          "internalType": "uint256",
          "name": "tokenId",
          "type": "uint256"
        },
        {
          "internalType": "bytes",
          "name": "_data",
          "type": "bytes"
        }
      ],
      "name": "safeTransferFrom",
      "outputs": [],
      "stateMutability": "payable",
      "type": "function"
    },
    {
      "inputs": [],
      "name": "saleStartTime",
      "outputs": [
        {
          "internalType": "uint256",
          "name": "",
          "type": "uint256"
        }
      ],
      "stateMutability": "view",
      "type": "function"
    },
    {
      "inputs": [
        {
          "internalType": "address",
          "name": "operator",
          "type": "address"
        },
        {
          "internalType": "bool",
          "name": "approved",
          "type": "bool"
        }
      ],
      "name": "setApprovalForAll",
      "outputs": [],
      "stateMutability": "nonpayable",
      "type": "function"
    },
    {
      "inputs": [
        {
          "internalType": "string",
          "name": "_baseURI",
          "type": "string"
        }
      ],
      "name": "setBaseUri",
      "outputs": [],
      "stateMutability": "nonpayable",
      "type": "function"
    },
    {
      "inputs": [
        {
          "internalType": "uint256",
          "name": "_saleStartTime",
          "type": "uint256"
        }
      ],
      "name": "setSaleStartTime",
      "outputs": [],
      "stateMutability": "nonpayable",
      "type": "function"
    },
    {
      "inputs": [
        {
          "internalType": "bytes4",
          "name": "interfaceId",
          "type": "bytes4"
        }
      ],
      "name": "supportsInterface",
      "outputs": [
        {
          "internalType": "bool",
          "name": "",
          "type": "bool"
        }
      ],
      "stateMutability": "view",
      "type": "function"
    },
    {
      "inputs": [],
      "name": "symbol",
      "outputs": [
        {
          "internalType": "string",
          "name": "",
          "type": "string"
        }
      ],
      "stateMutability": "view",
      "type": "function"
    },
    {
      "inputs": [
        {
          "internalType": "uint256",
          "name": "_tokenId",
          "type": "uint256"
        }
      ],
      "name": "tokenURI",
      "outputs": [
        {
          "internalType": "string",
          "name": "",
          "type": "string"
        }
      ],
      "stateMutability": "view",
      "type": "function"
    },
    {
      "inputs": [],
      "name": "totalSupply",
      "outputs": [
        {
          "internalType": "uint256",
          "name": "",
          "type": "uint256"
        }
      ],
      "stateMutability": "view",
      "type": "function"
    },
    {
      "inputs": [
        {
          "internalType": "address",
          "name": "from",
          "type": "address"
        },
        {
          "internalType": "address",
          "name": "to",
          "type": "address"
        },
        {
          "internalType": "uint256",
          "name": "tokenId",
          "type": "uint256"
        }
      ],
      "name": "transferFrom",
      "outputs": [],
      "stateMutability": "payable",
      "type": "function"
    },
    {
      "inputs": [
        {
          "internalType": "address",
          "name": "newOwner",
          "type": "address"
        }
      ],
      "name": "transferOwnership",
      "outputs": [],
      "stateMutability": "nonpayable",
      "type": "function"
    },
    {
      "inputs": [
        {
          "internalType": "address",
          "name": "_owner",
          "type": "address"
        }
      ],
      "name": "walletOfOwner",
      "outputs": [
        {
          "internalType": "uint256[]",
          "name": "",
          "type": "uint256[]"
        }
      ],
      "stateMutability": "view",
      "type": "function"
    },
    {
      "inputs": [],
      "name": "withdraw",
      "outputs": [],
      "stateMutability": "payable",
      "type": "function"
    }
  ],
  "transactionHash": "0xa7e5cea81d55963d87fb33c191eb0abe4c9477164404363ca1d876320f8c72b5",
  "args": [],
  "numDeployments": 2,
  "solcInputHash": "8452e1c8e22c3f8f4efc3f79ced56b8d",
  "bytecode": "0x6080604052636698a924600955348015610017575f80fd5b506040518060400160405280600381526020017f4e6f6d00000000000000000000000000000000000000000000000000000000008152506040518060400160405280600781526020017f73796d626f6c650000000000000000000000000000000000000000000000000081525081600290816100939190610895565b5080600390816100a39190610895565b506100b261012e60201b60201c565b5f8190555050506100d56100ca61013260201b60201c565b61013960201b60201c565b6100e63360326101fc60201b60201c565b6032600b5f3373ffffffffffffffffffffffffffffffffffffffff1673ffffffffffffffffffffffffffffffffffffffff1681526020019081526020015f2081905550610af0565b5f90565b5f33905090565b5f60085f9054906101000a900473ffffffffffffffffffffffffffffffffffffffff1690508160085f6101000a81548173ffffffffffffffffffffffffffffffffffffffff021916908373ffffffffffffffffffffffffffffffffffffffff1602179055508173ffffffffffffffffffffffffffffffffffffffff168173ffffffffffffffffffffffffffffffffffffffff167f8be0079c531659141344cd1fd0a4f28419497f9722a3daafe3b4186f6b6457e060405160405180910390a35050565b61021b828260405180602001604052805f81525061021f60201b60201c565b5050565b61022f83836102c260201b60201c565b5f8373ffffffffffffffffffffffffffffffffffffffff163b146102bd575f805490505f83820390505b6102715f86838060010194508661048960201b60201c565b6102a7576040517fd1a57ed600000000000000000000000000000000000000000000000000000000815260040160405180910390fd5b81811061025957815f54146102ba575f80fd5b50505b505050565b5f805490505f8203610300576040517fb562e8dd00000000000000000000000000000000000000000000000000000000815260040160405180910390fd5b6103125f8483856105da60201b60201c565b600160406001901b17820260055f8573ffffffffffffffffffffffffffffffffffffffff1673ffffffffffffffffffffffffffffffffffffffff1681526020019081526020015f205f82825401925050819055506103968361037b5f865f6105e060201b60201c565b61038a8561060d60201b60201c565b1761061c60201b60201c565b60045f8381526020019081526020015f20819055505f80838301905073ffffffffffffffffffffffffffffffffffffffff8516915082825f7fddf252ad1be2c89b69c2b068fc378daa952ba7f163c4a11628f55a4df523b3ef5f80a4600183015b8181146104305780835f7fddf252ad1be2c89b69c2b068fc378daa952ba7f163c4a11628f55a4df523b3ef5f80a46001810190506103f7565b505f820361046a576040517f2e07630000000000000000000000000000000000000000000000000000000000815260040160405180910390fd5b805f8190555050506104845f84838561064660201b60201c565b505050565b5f8373ffffffffffffffffffffffffffffffffffffffff1663150b7a026104b461064c60201b60201c565b8786866040518563ffffffff1660e01b81526004016104d69493929190610a22565b6020604051808303815f875af192505050801561051157506040513d601f19601f8201168201806040525081019061050e9190610ac5565b60015b610587573d805f811461053f576040519150601f19603f3d011682016040523d82523d5f602084013e610544565b606091505b505f81510361057f576040517fd1a57ed600000000000000000000000000000000000000000000000000000000815260040160405180910390fd5b805181602001fd5b63150b7a0260e01b7bffffffffffffffffffffffffffffffffffffffffffffffffffffffff1916817bffffffffffffffffffffffffffffffffffffffffffffffffffffffff191614915050949350505050565b50505050565b5f8060e883901c905060e86105fc86868461065360201b60201c565b62ffffff16901b9150509392505050565b5f6001821460e11b9050919050565b5f73ffffffffffffffffffffffffffffffffffffffff83169250814260a01b178317905092915050565b50505050565b5f33905090565b5f9392505050565b5f81519050919050565b7f4e487b71000000000000000000000000000000000000000000000000000000005f52604160045260245ffd5b7f4e487b71000000000000000000000000000000000000000000000000000000005f52602260045260245ffd5b5f60028204905060018216806106d657607f821691505b6020821081036106e9576106e8610692565b5b50919050565b5f819050815f5260205f209050919050565b5f6020601f8301049050919050565b5f82821b905092915050565b5f6008830261074b7fffffffffffffffffffffffffffffffffffffffffffffffffffffffffffffffff82610710565b6107558683610710565b95508019841693508086168417925050509392505050565b5f819050919050565b5f819050919050565b5f61079961079461078f8461076d565b610776565b61076d565b9050919050565b5f819050919050565b6107b28361077f565b6107c66107be826107a0565b84845461071c565b825550505050565b5f90565b6107da6107ce565b6107e58184846107a9565b505050565b5b81811015610808576107fd5f826107d2565b6001810190506107eb565b5050565b601f82111561084d5761081e816106ef565b61082784610701565b81016020851015610836578190505b61084a61084285610701565b8301826107ea565b50505b505050565b5f82821c905092915050565b5f61086d5f1984600802610852565b1980831691505092915050565b5f610885838361085e565b9150826002028217905092915050565b61089e8261065b565b67ffffffffffffffff8111156108b7576108b6610665565b5b6108c182546106bf565b6108cc82828561080c565b5f60209050601f8311600181146108fd575f84156108eb578287015190505b6108f5858261087a565b86555061095c565b601f19841661090b866106ef565b5f5b828110156109325784890151825560018201915060208501945060208101905061090d565b8683101561094f578489015161094b601f89168261085e565b8355505b6001600288020188555050505b505050505050565b5f73ffffffffffffffffffffffffffffffffffffffff82169050919050565b5f61098d82610964565b9050919050565b61099d81610983565b82525050565b6109ac8161076d565b82525050565b5f81519050919050565b5f82825260208201905092915050565b8281835e5f83830152505050565b5f601f19601f8301169050919050565b5f6109f4826109b2565b6109fe81856109bc565b9350610a0e8185602086016109cc565b610a17816109da565b840191505092915050565b5f608082019050610a355f830187610994565b610a426020830186610994565b610a4f60408301856109a3565b8181036060830152610a6181846109ea565b905095945050505050565b5f80fd5b5f7fffffffff0000000000000000000000000000000000000000000000000000000082169050919050565b610aa481610a70565b8114610aae575f80fd5b50565b5f81519050610abf81610a9b565b92915050565b5f60208284031215610ada57610ad9610a6c565b5b5f610ae784828501610ab1565b91505092915050565b612e3280610afd5f395ff3fe608060405260043610610165575f3560e01c80636c0360eb116100d0578063a0bcfc7f11610089578063c87b56dd11610063578063c87b56dd146104b5578063df3a4586146104f1578063e985e9c51461052d578063f2fde38b1461056957610165565b8063a0bcfc7f14610449578063a22cb46514610471578063b88d4fde1461049957610165565b80636c0360eb1461035d57806370a0823114610387578063715018a6146103c35780638da5cb5b146103d957806395d89b4114610403578063a0712d681461042d57610165565b806323b872dd1161012257806323b872dd1461027b5780633ccfd60b1461029757806342842e0e146102a1578063438b6300146102bd578063525f8a5c146102f95780636352211e1461032157610165565b806301ffc9a71461016957806306fdde03146101a5578063081812fc146101cf578063095ea7b31461020b57806318160ddd146102275780631cbaee2d14610251575b5f80fd5b348015610174575f80fd5b5061018f600480360381019061018a9190611de8565b610591565b60405161019c9190611e2d565b60405180910390f35b3480156101b0575f80fd5b506101b9610622565b6040516101c69190611eb6565b60405180910390f35b3480156101da575f80fd5b506101f560048036038101906101f09190611f09565b6106b2565b6040516102029190611f73565b60405180910390f35b61022560048036038101906102209190611fb6565b61072c565b005b348015610232575f80fd5b5061023b61086b565b6040516102489190612003565b60405180910390f35b34801561025c575f80fd5b50610265610880565b6040516102729190612003565b60405180910390f35b6102956004803603810190610290919061201c565b610886565b005b61029f610b94565b005b6102bb60048036038101906102b6919061201c565b610c17565b005b3480156102c8575f80fd5b506102e360048036038101906102de919061206c565b610c36565b6040516102f0919061214e565b60405180910390f35b348015610304575f80fd5b5061031f600480360381019061031a9190611f09565b610d25565b005b34801561032c575f80fd5b5061034760048036038101906103429190611f09565b610d37565b6040516103549190611f73565b60405180910390f35b348015610368575f80fd5b50610371610d48565b60405161037e9190611eb6565b60405180910390f35b348015610392575f80fd5b506103ad60048036038101906103a8919061206c565b610dd4565b6040516103ba9190612003565b60405180910390f35b3480156103ce575f80fd5b506103d7610e89565b005b3480156103e4575f80fd5b506103ed610e9c565b6040516103fa9190611f73565b60405180910390f35b34801561040e575f80fd5b50610417610ec4565b6040516104249190611eb6565b60405180910390f35b61044760048036038101906104429190611f09565b610f54565b005b348015610454575f80fd5b5061046f600480360381019061046a919061229a565b61113a565b005b34801561047c575f80fd5b506104976004803603810190610492919061230b565b611155565b005b6104b360048036038101906104ae91906123e7565b61125b565b005b3480156104c0575f80fd5b506104db60048036038101906104d69190611f09565b6112cd565b6040516104e89190611eb6565b60405180910390f35b3480156104fc575f80fd5b506105176004803603810190610512919061206c565b611349565b6040516105249190612003565b60405180910390f35b348015610538575f80fd5b50610553600480360381019061054e9190612467565b61135e565b6040516105609190611e2d565b60405180910390f35b348015610574575f80fd5b5061058f600480360381019061058a919061206c565b6113ec565b005b5f6301ffc9a760e01b827bffffffffffffffffffffffffffffffffffffffffffffffffffffffff191614806105eb57506380ac58cd60e01b827bffffffffffffffffffffffffffffffffffffffffffffffffffffffff1916145b8061061b5750635b5e139f60e01b827bffffffffffffffffffffffffffffffffffffffffffffffffffffffff1916145b9050919050565b606060028054610631906124d2565b80601f016020809104026020016040519081016040528092919081815260200182805461065d906124d2565b80156106a85780601f1061067f576101008083540402835291602001916106a8565b820191905f5260205f20905b81548152906001019060200180831161068b57829003601f168201915b5050505050905090565b5f6106bc8261146e565b6106f2576040517fcf4700e400000000000000000000000000000000000000000000000000000000815260040160405180910390fd5b60065f8381526020019081526020015f205f015f9054906101000a900473ffffffffffffffffffffffffffffffffffffffff169050919050565b5f61073682610d37565b90508073ffffffffffffffffffffffffffffffffffffffff166107576114c8565b73ffffffffffffffffffffffffffffffffffffffff16146107ba576107838161077e6114c8565b61135e565b6107b9576040517fcfb3b94200000000000000000000000000000000000000000000000000000000815260040160405180910390fd5b5b8260065f8481526020019081526020015f205f015f6101000a81548173ffffffffffffffffffffffffffffffffffffffff021916908373ffffffffffffffffffffffffffffffffffffffff160217905550818373ffffffffffffffffffffffffffffffffffffffff168273ffffffffffffffffffffffffffffffffffffffff167f8c5be1e5ebec7d5bd14f71427d1e84f3dd0314c0f7b2291e5b200ac8c7c3b92560405160405180910390a4505050565b5f6108746114cf565b6001545f540303905090565b60095481565b5f610890826114d3565b90508373ffffffffffffffffffffffffffffffffffffffff168173ffffffffffffffffffffffffffffffffffffffff16146108f7576040517fa114810000000000000000000000000000000000000000000000000000000000815260040160405180910390fd5b5f8061090284611596565b9150915061091881876109136114c8565b6115b9565b6109645761092d866109286114c8565b61135e565b610963576040517f59c896be00000000000000000000000000000000000000000000000000000000815260040160405180910390fd5b5b5f73ffffffffffffffffffffffffffffffffffffffff168573ffffffffffffffffffffffffffffffffffffffff16036109c9576040517fea553b3400000000000000000000000000000000000000000000000000000000815260040160405180910390fd5b6109d686868660016115fc565b80156109e0575f82555b60055f8773ffffffffffffffffffffffffffffffffffffffff1673ffffffffffffffffffffffffffffffffffffffff1681526020019081526020015f205f8154600190039190508190555060055f8673ffffffffffffffffffffffffffffffffffffffff1673ffffffffffffffffffffffffffffffffffffffff1681526020019081526020015f205f815460010191905081905550610aa885610a84888887611602565b7c020000000000000000000000000000000000000000000000000000000017611629565b60045f8681526020019081526020015f20819055505f7c0200000000000000000000000000000000000000000000000000000000841603610b24575f6001850190505f60045f8381526020019081526020015f205403610b22575f548114610b21578360045f8381526020019081526020015f20819055505b5b505b838573ffffffffffffffffffffffffffffffffffffffff168773ffffffffffffffffffffffffffffffffffffffff167fddf252ad1be2c89b69c2b068fc378daa952ba7f163c4a11628f55a4df523b3ef60405160405180910390a4610b8c8686866001611653565b505050505050565b610b9c611659565b5f610ba5610e9c565b73ffffffffffffffffffffffffffffffffffffffff1647604051610bc89061252f565b5f6040518083038185875af1925050503d805f8114610c02576040519150601f19603f3d011682016040523d82523d5f602084013e610c07565b606091505b5050905080610c14575f80fd5b50565b610c3183838360405180602001604052805f81525061125b565b505050565b60605f610c4283610dd4565b90505f8167ffffffffffffffff811115610c5f57610c5e612176565b5b604051908082528060200260200182016040528015610c8d5781602001602082028036833780820191505090505b5090505f805b610c9b61086b565b811015610d19578573ffffffffffffffffffffffffffffffffffffffff16610cc282610d37565b73ffffffffffffffffffffffffffffffffffffffff1603610d0c5780838381518110610cf157610cf0612543565b5b6020026020010181815250508180610d089061259d565b9250505b8080600101915050610c93565b50819350505050919050565b610d2d611659565b8060098190555050565b5f610d41826114d3565b9050919050565b600a8054610d55906124d2565b80601f0160208091040260200160405190810160405280929190818152602001828054610d81906124d2565b8015610dcc5780601f10610da357610100808354040283529160200191610dcc565b820191905f5260205f20905b815481529060010190602001808311610daf57829003601f168201915b505050505081565b5f8073ffffffffffffffffffffffffffffffffffffffff168273ffffffffffffffffffffffffffffffffffffffff1603610e3a576040517f8f4eb60400000000000000000000000000000000000000000000000000000000815260040160405180910390fd5b67ffffffffffffffff60055f8473ffffffffffffffffffffffffffffffffffffffff1673ffffffffffffffffffffffffffffffffffffffff1681526020019081526020015f2054169050919050565b610e91611659565b610e9a5f6116d7565b565b5f60085f9054906101000a900473ffffffffffffffffffffffffffffffffffffffff16905090565b606060038054610ed3906124d2565b80601f0160208091040260200160405190810160405280929190818152602001828054610eff906124d2565b8015610f4a5780601f10610f2157610100808354040283529160200191610f4a565b820191905f5260205f20905b815481529060010190602001808311610f2d57829003601f168201915b5050505050905090565b600954610f5f61179a565b1015610fa0576040517f08c379a0000000000000000000000000000000000000000000000000000000008152600401610f979061262e565b60405180910390fd5b6101f381610fac61086b565b610fb6919061264c565b1115610ff7576040517f08c379a0000000000000000000000000000000000000000000000000000000008152600401610fee906126c9565b60405180910390fd5b806802b5e3af16b188000061100c91906126e7565b34101561104e576040517f08c379a000000000000000000000000000000000000000000000000000000000815260040161104590612772565b60405180910390fd5b600381600b5f3373ffffffffffffffffffffffffffffffffffffffff1673ffffffffffffffffffffffffffffffffffffffff1681526020019081526020015f2054611099919061264c565b11156110da576040517f08c379a00000000000000000000000000000000000000000000000000000000081526004016110d1906127da565b60405180910390fd5b80600b5f3373ffffffffffffffffffffffffffffffffffffffff1673ffffffffffffffffffffffffffffffffffffffff1681526020019081526020015f205f828254611126919061264c565b9250508190555061113733826117a1565b50565b611142611659565b80600a90816111519190612995565b5050565b8060075f6111616114c8565b73ffffffffffffffffffffffffffffffffffffffff1673ffffffffffffffffffffffffffffffffffffffff1681526020019081526020015f205f8473ffffffffffffffffffffffffffffffffffffffff1673ffffffffffffffffffffffffffffffffffffffff1681526020019081526020015f205f6101000a81548160ff0219169083151502179055508173ffffffffffffffffffffffffffffffffffffffff1661120a6114c8565b73ffffffffffffffffffffffffffffffffffffffff167f17307eab39ab6107e8899845ad3d59bd9653f200f220920489ca2b5937696c318360405161124f9190611e2d565b60405180910390a35050565b611266848484610886565b5f8373ffffffffffffffffffffffffffffffffffffffff163b146112c757611290848484846117be565b6112c6576040517fd1a57ed600000000000000000000000000000000000000000000000000000000815260040160405180910390fd5b5b50505050565b60606112d88261146e565b611317576040517f08c379a000000000000000000000000000000000000000000000000000000000815260040161130e90612aae565b60405180910390fd5b600a61132283611909565b604051602001611333929190612bd0565b6040516020818303038152906040529050919050565b600b602052805f5260405f205f915090505481565b5f60075f8473ffffffffffffffffffffffffffffffffffffffff1673ffffffffffffffffffffffffffffffffffffffff1681526020019081526020015f205f8373ffffffffffffffffffffffffffffffffffffffff1673ffffffffffffffffffffffffffffffffffffffff1681526020019081526020015f205f9054906101000a900460ff16905092915050565b6113f4611659565b5f73ffffffffffffffffffffffffffffffffffffffff168173ffffffffffffffffffffffffffffffffffffffff1603611462576040517f08c379a000000000000000000000000000000000000000000000000000000000815260040161145990612c6e565b60405180910390fd5b61146b816116d7565b50565b5f816114786114cf565b1115801561148657505f5482105b80156114c157505f7c010000000000000000000000000000000000000000000000000000000060045f8581526020019081526020015f205416145b9050919050565b5f33905090565b5f90565b5f80829050806114e16114cf565b1161155f575f5481101561155e575f60045f8381526020019081526020015f205490505f7c010000000000000000000000000000000000000000000000000000000082160361155c575b5f81036115525760045f836001900393508381526020019081526020015f2054905061152b565b8092505050611591565b505b5b6040517fdf2d9b4200000000000000000000000000000000000000000000000000000000815260040160405180910390fd5b919050565b5f805f60065f8581526020019081526020015f2090508092508254915050915091565b5f73ffffffffffffffffffffffffffffffffffffffff8316925073ffffffffffffffffffffffffffffffffffffffff821691508382148383141790509392505050565b50505050565b5f8060e883901c905060e86116188686846119d3565b62ffffff16901b9150509392505050565b5f73ffffffffffffffffffffffffffffffffffffffff83169250814260a01b178317905092915050565b50505050565b6116616119db565b73ffffffffffffffffffffffffffffffffffffffff1661167f610e9c565b73ffffffffffffffffffffffffffffffffffffffff16146116d5576040517f08c379a00000000000000000000000000000000000000000000000000000000081526004016116cc90612cd6565b60405180910390fd5b565b5f60085f9054906101000a900473ffffffffffffffffffffffffffffffffffffffff1690508160085f6101000a81548173ffffffffffffffffffffffffffffffffffffffff021916908373ffffffffffffffffffffffffffffffffffffffff1602179055508173ffffffffffffffffffffffffffffffffffffffff168173ffffffffffffffffffffffffffffffffffffffff167f8be0079c531659141344cd1fd0a4f28419497f9722a3daafe3b4186f6b6457e060405160405180910390a35050565b5f42905090565b6117ba828260405180602001604052805f8152506119e2565b5050565b5f8373ffffffffffffffffffffffffffffffffffffffff1663150b7a026117e36114c8565b8786866040518563ffffffff1660e01b81526004016118059493929190612d46565b6020604051808303815f875af192505050801561184057506040513d601f19601f8201168201806040525081019061183d9190612da4565b60015b6118b6573d805f811461186e576040519150601f19603f3d011682016040523d82523d5f602084013e611873565b606091505b505f8151036118ae576040517fd1a57ed600000000000000000000000000000000000000000000000000000000815260040160405180910390fd5b805181602001fd5b63150b7a0260e01b7bffffffffffffffffffffffffffffffffffffffffffffffffffffffff1916817bffffffffffffffffffffffffffffffffffffffffffffffffffffffff191614915050949350505050565b60605f600161191784611a79565b0190505f8167ffffffffffffffff81111561193557611934612176565b5b6040519080825280601f01601f1916602001820160405280156119675781602001600182028036833780820191505090505b5090505f82602001820190505b6001156119c8578080600190039150507f3031323334353637383961626364656600000000000000000000000000000000600a86061a8153600a85816119bd576119bc612dcf565b5b0494505f8503611974575b819350505050919050565b5f9392505050565b5f33905090565b6119ec8383611bca565b5f8373ffffffffffffffffffffffffffffffffffffffff163b14611a74575f805490505f83820390505b611a285f8683806001019450866117be565b611a5e576040517fd1a57ed600000000000000000000000000000000000000000000000000000000815260040160405180910390fd5b818110611a1657815f5414611a71575f80fd5b50505b505050565b5f805f90507a184f03e93ff9f4daa797ed6e38ed64bf6a1f0100000000000000008310611ad5577a184f03e93ff9f4daa797ed6e38ed64bf6a1f0100000000000000008381611acb57611aca612dcf565b5b0492506040810190505b6d04ee2d6d415b85acef81000000008310611b12576d04ee2d6d415b85acef81000000008381611b0857611b07612dcf565b5b0492506020810190505b662386f26fc100008310611b4157662386f26fc100008381611b3757611b36612dcf565b5b0492506010810190505b6305f5e1008310611b6a576305f5e1008381611b6057611b5f612dcf565b5b0492506008810190505b6127108310611b8f576127108381611b8557611b84612dcf565b5b0492506004810190505b60648310611bb25760648381611ba857611ba7612dcf565b5b0492506002810190505b600a8310611bc1576001810190505b80915050919050565b5f805490505f8203611c08576040517fb562e8dd00000000000000000000000000000000000000000000000000000000815260040160405180910390fd5b611c145f8483856115fc565b600160406001901b17820260055f8573ffffffffffffffffffffffffffffffffffffffff1673ffffffffffffffffffffffffffffffffffffffff1681526020019081526020015f205f8282540192505081905550611c8683611c775f865f611602565b611c8085611d73565b17611629565b60045f8381526020019081526020015f20819055505f80838301905073ffffffffffffffffffffffffffffffffffffffff8516915082825f7fddf252ad1be2c89b69c2b068fc378daa952ba7f163c4a11628f55a4df523b3ef5f80a4600183015b818114611d205780835f7fddf252ad1be2c89b69c2b068fc378daa952ba7f163c4a11628f55a4df523b3ef5f80a4600181019050611ce7565b505f8203611d5a576040517f2e07630000000000000000000000000000000000000000000000000000000000815260040160405180910390fd5b805f819055505050611d6e5f848385611653565b505050565b5f6001821460e11b9050919050565b5f604051905090565b5f80fd5b5f80fd5b5f7fffffffff0000000000000000000000000000000000000000000000000000000082169050919050565b611dc781611d93565b8114611dd1575f80fd5b50565b5f81359050611de281611dbe565b92915050565b5f60208284031215611dfd57611dfc611d8b565b5b5f611e0a84828501611dd4565b91505092915050565b5f8115159050919050565b611e2781611e13565b82525050565b5f602082019050611e405f830184611e1e565b92915050565b5f81519050919050565b5f82825260208201905092915050565b8281835e5f83830152505050565b5f601f19601f8301169050919050565b5f611e8882611e46565b611e928185611e50565b9350611ea2818560208601611e60565b611eab81611e6e565b840191505092915050565b5f6020820190508181035f830152611ece8184611e7e565b905092915050565b5f819050919050565b611ee881611ed6565b8114611ef2575f80fd5b50565b5f81359050611f0381611edf565b92915050565b5f60208284031215611f1e57611f1d611d8b565b5b5f611f2b84828501611ef5565b91505092915050565b5f73ffffffffffffffffffffffffffffffffffffffff82169050919050565b5f611f5d82611f34565b9050919050565b611f6d81611f53565b82525050565b5f602082019050611f865f830184611f64565b92915050565b611f9581611f53565b8114611f9f575f80fd5b50565b5f81359050611fb081611f8c565b92915050565b5f8060408385031215611fcc57611fcb611d8b565b5b5f611fd985828601611fa2565b9250506020611fea85828601611ef5565b9150509250929050565b611ffd81611ed6565b82525050565b5f6020820190506120165f830184611ff4565b92915050565b5f805f6060848603121561203357612032611d8b565b5b5f61204086828701611fa2565b935050602061205186828701611fa2565b925050604061206286828701611ef5565b9150509250925092565b5f6020828403121561208157612080611d8b565b5b5f61208e84828501611fa2565b91505092915050565b5f81519050919050565b5f82825260208201905092915050565b5f819050602082019050919050565b6120c981611ed6565b82525050565b5f6120da83836120c0565b60208301905092915050565b5f602082019050919050565b5f6120fc82612097565b61210681856120a1565b9350612111836120b1565b805f5b8381101561214157815161212888826120cf565b9750612133836120e6565b925050600181019050612114565b5085935050505092915050565b5f6020820190508181035f83015261216681846120f2565b905092915050565b5f80fd5b5f80fd5b7f4e487b71000000000000000000000000000000000000000000000000000000005f52604160045260245ffd5b6121ac82611e6e565b810181811067ffffffffffffffff821117156121cb576121ca612176565b5b80604052505050565b5f6121dd611d82565b90506121e982826121a3565b919050565b5f67ffffffffffffffff82111561220857612207612176565b5b61221182611e6e565b9050602081019050919050565b828183375f83830152505050565b5f61223e612239846121ee565b6121d4565b90508281526020810184848401111561225a57612259612172565b5b61226584828561221e565b509392505050565b5f82601f8301126122815761228061216e565b5b813561229184826020860161222c565b91505092915050565b5f602082840312156122af576122ae611d8b565b5b5f82013567ffffffffffffffff8111156122cc576122cb611d8f565b5b6122d88482850161226d565b91505092915050565b6122ea81611e13565b81146122f4575f80fd5b50565b5f81359050612305816122e1565b92915050565b5f806040838503121561232157612320611d8b565b5b5f61232e85828601611fa2565b925050602061233f858286016122f7565b9150509250929050565b5f67ffffffffffffffff82111561236357612362612176565b5b61236c82611e6e565b9050602081019050919050565b5f61238b61238684612349565b6121d4565b9050828152602081018484840111156123a7576123a6612172565b5b6123b284828561221e565b509392505050565b5f82601f8301126123ce576123cd61216e565b5b81356123de848260208601612379565b91505092915050565b5f805f80608085870312156123ff576123fe611d8b565b5b5f61240c87828801611fa2565b945050602061241d87828801611fa2565b935050604061242e87828801611ef5565b925050606085013567ffffffffffffffff81111561244f5761244e611d8f565b5b61245b878288016123ba565b91505092959194509250565b5f806040838503121561247d5761247c611d8b565b5b5f61248a85828601611fa2565b925050602061249b85828601611fa2565b9150509250929050565b7f4e487b71000000000000000000000000000000000000000000000000000000005f52602260045260245ffd5b5f60028204905060018216806124e957607f821691505b6020821081036124fc576124fb6124a5565b5b50919050565b5f81905092915050565b50565b5f61251a5f83612502565b91506125258261250c565b5f82019050919050565b5f6125398261250f565b9150819050919050565b7f4e487b71000000000000000000000000000000000000000000000000000000005f52603260045260245ffd5b7f4e487b71000000000000000000000000000000000000000000000000000000005f52601160045260245ffd5b5f6125a782611ed6565b91507fffffffffffffffffffffffffffffffffffffffffffffffffffffffffffffffff82036125d9576125d8612570565b5b600182019050919050565b7f53616c6520686173206e6f7420737461727465642079657400000000000000005f82015250565b5f612618601883611e50565b9150612623826125e4565b602082019050919050565b5f6020820190508181035f8301526126458161260c565b9050919050565b5f61265682611ed6565b915061266183611ed6565b925082820190508082111561267957612678612570565b5b92915050565b7f4d617820737570706c79206578636565646564000000000000000000000000005f82015250565b5f6126b3601383611e50565b91506126be8261267f565b602082019050919050565b5f6020820190508181035f8301526126e0816126a7565b9050919050565b5f6126f182611ed6565b91506126fc83611ed6565b925082820261270a81611ed6565b9150828204841483151761272157612720612570565b5b5092915050565b7f4e6f7420656e6f7567682066756e6473000000000000000000000000000000005f82015250565b5f61275c601083611e50565b915061276782612728565b602082019050919050565b5f6020820190508181035f83015261278981612750565b9050919050565b7f4f6e6c792033204e465473207065722057616c6c6574000000000000000000005f82015250565b5f6127c4601683611e50565b91506127cf82612790565b602082019050919050565b5f6020820190508181035f8301526127f1816127b8565b9050919050565b5f819050815f5260205f209050919050565b5f6020601f8301049050919050565b5f82821b905092915050565b5f600883026128547fffffffffffffffffffffffffffffffffffffffffffffffffffffffffffffffff82612819565b61285e8683612819565b95508019841693508086168417925050509392505050565b5f819050919050565b5f61289961289461288f84611ed6565b612876565b611ed6565b9050919050565b5f819050919050565b6128b28361287f565b6128c66128be826128a0565b848454612825565b825550505050565b5f90565b6128da6128ce565b6128e58184846128a9565b505050565b5b81811015612908576128fd5f826128d2565b6001810190506128eb565b5050565b601f82111561294d5761291e816127f8565b6129278461280a565b81016020851015612936578190505b61294a6129428561280a565b8301826128ea565b50505b505050565b5f82821c905092915050565b5f61296d5f1984600802612952565b1980831691505092915050565b5f612985838361295e565b9150826002028217905092915050565b61299e82611e46565b67ffffffffffffffff8111156129b7576129b6612176565b5b6129c182546124d2565b6129cc82828561290c565b5f60209050601f8311600181146129fd575f84156129eb578287015190505b6129f5858261297a565b865550612a5c565b601f198416612a0b866127f8565b5f5b82811015612a3257848901518255600182019150602085019450602081019050612a0d565b86831015612a4f5784890151612a4b601f89168261295e565b8355505b6001600288020188555050505b505050505050565b7f55524920717565727920666f72206e6f6e6578697374656e7420746f6b656e005f82015250565b5f612a98601f83611e50565b9150612aa382612a64565b602082019050919050565b5f6020820190508181035f830152612ac581612a8c565b9050919050565b5f81905092915050565b5f8154612ae2816124d2565b612aec8186612acc565b9450600182165f8114612b065760018114612b1b57612b4d565b60ff1983168652811515820286019350612b4d565b612b24856127f8565b5f5b83811015612b4557815481890152600182019150602081019050612b26565b838801955050505b50505092915050565b5f612b6082611e46565b612b6a8185612acc565b9350612b7a818560208601611e60565b80840191505092915050565b7f2e6a736f6e0000000000000000000000000000000000000000000000000000005f82015250565b5f612bba600583612acc565b9150612bc582612b86565b600582019050919050565b5f612bdb8285612ad6565b9150612be78284612b56565b9150612bf282612bae565b91508190509392505050565b7f4f776e61626c653a206e6577206f776e657220697320746865207a65726f20615f8201527f6464726573730000000000000000000000000000000000000000000000000000602082015250565b5f612c58602683611e50565b9150612c6382612bfe565b604082019050919050565b5f6020820190508181035f830152612c8581612c4c565b9050919050565b7f4f776e61626c653a2063616c6c6572206973206e6f7420746865206f776e65725f82015250565b5f612cc0602083611e50565b9150612ccb82612c8c565b602082019050919050565b5f6020820190508181035f830152612ced81612cb4565b9050919050565b5f81519050919050565b5f82825260208201905092915050565b5f612d1882612cf4565b612d228185612cfe565b9350612d32818560208601611e60565b612d3b81611e6e565b840191505092915050565b5f608082019050612d595f830187611f64565b612d666020830186611f64565b612d736040830185611ff4565b8181036060830152612d858184612d0e565b905095945050505050565b5f81519050612d9e81611dbe565b92915050565b5f60208284031215612db957612db8611d8b565b5b5f612dc684828501612d90565b91505092915050565b7f4e487b71000000000000000000000000000000000000000000000000000000005f52601260045260245ffdfea264697066735822122053a97973e89dd0275c47e9a57a878cfa8917a60e0b334621058e775d39bc963e64736f6c634300081a0033",
  "devdoc": {
    "events": {
      "Approval(address,address,uint256)": {
        "details": "Emitted when `owner` enables `approved` to manage the `tokenId` token."
      },
      "ApprovalForAll(address,address,bool)": {
        "details": "Emitted when `owner` enables or disables (`approved`) `operator` to manage all of its assets."
      },
      "ConsecutiveTransfer(uint256,uint256,address,address)": {
        "details": "Emitted when tokens in `fromTokenId` to `toTokenId` (inclusive) is transferred from `from` to `to`, as defined in the [ERC2309](https://eips.ethereum.org/EIPS/eip-2309) standard. See {_mintERC2309} for more details."
      },
      "Transfer(address,address,uint256)": {
        "details": "Emitted when `tokenId` token is transferred from `from` to `to`."
      }
    },
    "kind": "dev",
    "methods": {
      "approve(address,uint256)": {
        "details": "Gives permission to `to` to transfer `tokenId` token to another account. The approval is cleared when the token is transferred. Only a single account can be approved at a time, so approving the zero address clears previous approvals. Requirements: - The caller must own the token or be an approved operator. - `tokenId` must exist. Emits an {Approval} event."
      },
      "balanceOf(address)": {
        "details": "Returns the number of tokens in `owner`'s account."
      },
      "getApproved(uint256)": {
        "details": "Returns the account approved for `tokenId` token. Requirements: - `tokenId` must exist."
      },
      "isApprovedForAll(address,address)": {
        "details": "Returns if the `operator` is allowed to manage all of the assets of `owner`. See {setApprovalForAll}."
      },
      "mint(uint256)": {
        "params": {
          "_quantity": "Amount of NFTs the user wants to mint*"
        }
      },
      "name()": {
        "details": "Returns the token collection name."
      },
      "owner()": {
        "details": "Returns the address of the current owner."
      },
      "ownerOf(uint256)": {
        "details": "Returns the owner of the `tokenId` token. Requirements: - `tokenId` must exist."
      },
      "renounceOwnership()": {
        "details": "Leaves the contract without owner. It will not be possible to call `onlyOwner` functions anymore. Can only be called by the current owner. NOTE: Renouncing ownership will leave the contract without an owner, thereby removing any functionality that is only available to the owner."
      },
      "safeTransferFrom(address,address,uint256)": {
        "details": "Equivalent to `safeTransferFrom(from, to, tokenId, '')`."
      },
      "safeTransferFrom(address,address,uint256,bytes)": {
        "details": "Safely transfers `tokenId` token from `from` to `to`. Requirements: - `from` cannot be the zero address. - `to` cannot be the zero address. - `tokenId` token must exist and be owned by `from`. - If the caller is not `from`, it must be approved to move this token by either {approve} or {setApprovalForAll}. - If `to` refers to a smart contract, it must implement {IERC721Receiver-onERC721Received}, which is called upon a safe transfer. Emits a {Transfer} event."
      },
      "setApprovalForAll(address,bool)": {
        "details": "Approve or remove `operator` as an operator for the caller. Operators can call {transferFrom} or {safeTransferFrom} for any token owned by the caller. Requirements: - The `operator` cannot be the caller. Emits an {ApprovalForAll} event."
      },
      "setBaseUri(string)": {
        "params": {
          "_baseURI": "The new base URI of the NFTs*"
        }
      },
      "setSaleStartTime(uint256)": {
        "params": {
          "_saleStartTime": "The new saleStartTime*"
        }
      },
      "supportsInterface(bytes4)": {
        "details": "Returns true if this contract implements the interface defined by `interfaceId`. See the corresponding [EIP section](https://eips.ethereum.org/EIPS/eip-165#how-interfaces-are-identified) to learn more about how these ids are created. This function call must use less than 30000 gas."
      },
      "symbol()": {
        "details": "Returns the token collection symbol."
      },
      "tokenURI(uint256)": {
        "params": {
          "_tokenId": "The ID of the NFT you want to have the URI*"
        }
      },
      "totalSupply()": {
        "details": "Returns the total number of tokens in existence. Burned tokens will reduce the count. To get the total number of tokens minted, please see {_totalMinted}."
      },
      "transferFrom(address,address,uint256)": {
        "details": "Transfers `tokenId` from `from` to `to`. Requirements: - `from` cannot be the zero address. - `to` cannot be the zero address. - `tokenId` token must be owned by `from`. - If the caller is not `from`, it must be approved to move this token by either {approve} or {setApprovalForAll}. Emits a {Transfer} event."
      },
      "transferOwnership(address)": {
        "details": "Transfers ownership of the contract to a new account (`newOwner`). Can only be called by the current owner."
      },
      "walletOfOwner(address)": {
        "params": {
          "_owner": "The address to query"
        },
        "returns": {
          "_0": "An array with the token IDs owned by the address*"
        }
      }
    },
    "version": 1
  },
  "userdoc": {
    "errors": {
      "ApprovalCallerNotOwnerNorApproved()": [
        {
          "notice": "The caller must own the token or be an approved operator."
        }
      ],
      "ApprovalQueryForNonexistentToken()": [
        {
          "notice": "The token does not exist."
        }
      ],
      "BalanceQueryForZeroAddress()": [
        {
          "notice": "Cannot query the balance for the zero address."
        }
      ],
      "MintERC2309QuantityExceedsLimit()": [
        {
          "notice": "The `quantity` minted with ERC2309 exceeds the safety limit."
        }
      ],
      "MintToZeroAddress()": [
        {
          "notice": "Cannot mint to the zero address."
        }
      ],
      "MintZeroQuantity()": [
        {
          "notice": "The quantity of tokens minted must be more than zero."
        }
      ],
      "OwnerQueryForNonexistentToken()": [
        {
          "notice": "The token does not exist."
        }
      ],
      "OwnershipNotInitializedForExtraData()": [
        {
          "notice": "The `extraData` cannot be set on an unintialized ownership slot."
        }
      ],
      "TransferCallerNotOwnerNorApproved()": [
        {
          "notice": "The caller must own the token or be an approved operator."
        }
      ],
      "TransferFromIncorrectOwner()": [
        {
          "notice": "The token must be owned by `from`."
        }
      ],
      "TransferToNonERC721ReceiverImplementer()": [
        {
          "notice": "Cannot safely transfer to a contract that does not implement the ERC721Receiver interface."
        }
      ],
      "TransferToZeroAddress()": [
        {
          "notice": "Cannot transfer to the zero address."
        }
      ],
      "URIQueryForNonexistentToken()": [
        {
          "notice": "The token does not exist."
        }
      ]
    },
    "kind": "user",
    "methods": {
      "mint(uint256)": {
        "notice": "Mint function"
      },
      "setBaseUri(string)": {
        "notice": "Change the base URI of the NFTs"
      },
      "setSaleStartTime(uint256)": {
        "notice": "Change the saleStartTime"
      },
      "tokenURI(uint256)": {
        "notice": "Get the token URI of an NFT by its ID"
      },
      "walletOfOwner(address)": {
        "notice": "Get all token IDs owned by a specific address"
      },
      "withdraw()": {
        "notice": "Get paid :D !*"
      }
    },
    "version": 1
  },
  "storageLayout": {
    "storage": [
      {
        "astId": 1533,
        "contract": "contracts/NFTIsERC721A.sol:NFT",
        "label": "_currentIndex",
        "offset": 0,
        "slot": "0",
        "type": "t_uint256"
      },
      {
        "astId": 1535,
        "contract": "contracts/NFTIsERC721A.sol:NFT",
        "label": "_burnCounter",
        "offset": 0,
        "slot": "1",
        "type": "t_uint256"
      },
      {
        "astId": 1537,
        "contract": "contracts/NFTIsERC721A.sol:NFT",
        "label": "_name",
        "offset": 0,
        "slot": "2",
        "type": "t_string_storage"
      },
      {
        "astId": 1539,
        "contract": "contracts/NFTIsERC721A.sol:NFT",
        "label": "_symbol",
        "offset": 0,
        "slot": "3",
        "type": "t_string_storage"
      },
      {
        "astId": 1543,
        "contract": "contracts/NFTIsERC721A.sol:NFT",
        "label": "_packedOwnerships",
        "offset": 0,
        "slot": "4",
        "type": "t_mapping(t_uint256,t_uint256)"
      },
      {
        "astId": 1547,
        "contract": "contracts/NFTIsERC721A.sol:NFT",
        "label": "_packedAddressData",
        "offset": 0,
        "slot": "5",
        "type": "t_mapping(t_address,t_uint256)"
      },
      {
        "astId": 1552,
        "contract": "contracts/NFTIsERC721A.sol:NFT",
        "label": "_tokenApprovals",
        "offset": 0,
        "slot": "6",
        "type": "t_mapping(t_uint256,t_struct(TokenApprovalRef)1465_storage)"
      },
      {
        "astId": 1558,
        "contract": "contracts/NFTIsERC721A.sol:NFT",
        "label": "_operatorApprovals",
        "offset": 0,
        "slot": "7",
        "type": "t_mapping(t_address,t_mapping(t_address,t_bool))"
      },
      {
        "astId": 7,
        "contract": "contracts/NFTIsERC721A.sol:NFT",
        "label": "_owner",
        "offset": 0,
        "slot": "8",
        "type": "t_address"
      },
      {
        "astId": 1195,
        "contract": "contracts/NFTIsERC721A.sol:NFT",
        "label": "saleStartTime",
        "offset": 0,
        "slot": "9",
        "type": "t_uint256"
      },
      {
        "astId": 1197,
        "contract": "contracts/NFTIsERC721A.sol:NFT",
        "label": "baseURI",
        "offset": 0,
        "slot": "10",
        "type": "t_string_storage"
      },
      {
        "astId": 1204,
        "contract": "contracts/NFTIsERC721A.sol:NFT",
        "label": "amountNFTsPerWallet",
        "offset": 0,
        "slot": "11",
        "type": "t_mapping(t_address,t_uint256)"
      }
    ],
    "types": {
      "t_address": {
        "encoding": "inplace",
        "label": "address",
        "numberOfBytes": "20"
      },
      "t_bool": {
        "encoding": "inplace",
        "label": "bool",
        "numberOfBytes": "1"
      },
      "t_mapping(t_address,t_bool)": {
        "encoding": "mapping",
        "key": "t_address",
        "label": "mapping(address => bool)",
        "numberOfBytes": "32",
        "value": "t_bool"
      },
      "t_mapping(t_address,t_mapping(t_address,t_bool))": {
        "encoding": "mapping",
        "key": "t_address",
        "label": "mapping(address => mapping(address => bool))",
        "numberOfBytes": "32",
        "value": "t_mapping(t_address,t_bool)"
      },
      "t_mapping(t_address,t_uint256)": {
        "encoding": "mapping",
        "key": "t_address",
        "label": "mapping(address => uint256)",
        "numberOfBytes": "32",
        "value": "t_uint256"
      },
      "t_mapping(t_uint256,t_struct(TokenApprovalRef)1465_storage)": {
        "encoding": "mapping",
        "key": "t_uint256",
        "label": "mapping(uint256 => struct ERC721A.TokenApprovalRef)",
        "numberOfBytes": "32",
        "value": "t_struct(TokenApprovalRef)1465_storage"
      },
      "t_mapping(t_uint256,t_uint256)": {
        "encoding": "mapping",
        "key": "t_uint256",
        "label": "mapping(uint256 => uint256)",
        "numberOfBytes": "32",
        "value": "t_uint256"
      },
      "t_string_storage": {
        "encoding": "bytes",
        "label": "string",
        "numberOfBytes": "32"
      },
      "t_struct(TokenApprovalRef)1465_storage": {
        "encoding": "inplace",
        "label": "struct ERC721A.TokenApprovalRef",
        "members": [
          {
            "astId": 1464,
            "contract": "contracts/NFTIsERC721A.sol:NFT",
            "label": "value",
            "offset": 0,
            "slot": "0",
            "type": "t_address"
          }
        ],
        "numberOfBytes": "32"
      },
      "t_uint256": {
        "encoding": "inplace",
        "label": "uint256",
        "numberOfBytes": "32"
      }
    }
  }
}